:100000000C9434000C9449000C9449000C94490061
:100010000C9449000C9449000C9449000C9449003C
:100020000C9449000C9449000C9449000C9449002C
:100030000C9449000C9449000C9449000C9449001C
:100040000C9449000C9449000C9449000C9449000C
:100050000C9449000C9449000C9449000C944900FC
:100060000C9449000C94490011241FBECFEFD8E036
:10007000DEBFCDBF11E0A0E0B1E0ECEFF1E002C0E7
:1000800005900D92AA32B107D9F70E9475000C9421
:10009000FC000C9400009C0140E050E060E472E43D
:1000A0008FE090E00E94DA00215031093093C500C2
:1000B0002093C40088E18093C10086E08093C20051
:1000C00008959091C00095FFFCCF8093C6000895DD
:1000D000CF93DF93EC0103C021960E9461008881D9
:1000E0008111FACFDF91CF9108958AB183708AB9D7
:1000F0008BB18C6F8BB980E895E20E944B004F99D1
:100100000DC080E091E00E9468002FEF83EC99E041
:10011000215080409040E1F700C000004E990DC092
:100120008BE091E00E9468002FEF83EC99E0215072
:1001300080409040E1F700C000004D990DC084E17F
:1001400091E00E9468002FEF83EC99E021508040FD
:100150009040E1F700C000004C990DC08BE191E0A8
:100160000E9468002FEF83EC99E02150804090407E
:10017000E1F700C000004B990DC083E291E00E94BE
:1001800068002FEF83EC99E0215080409040E1F728
:1001900000C000004A99B3CF86E291E00E94680057
:1001A0002FEF83EC99E0215080409040E1F700C0B0
:1001B0000000A5CFA1E21A2EAA1BBB1BFD010DC09A
:1001C000AA1FBB1FEE1FFF1FA217B307E407F50707
:1001D00020F0A21BB30BE40BF50B661F771F881FE3
:1001E000991F1A9469F760957095809590959B0179
:0C01F000AC01BD01CF010895F894FFCFD1
:1001FC00497A717569657264610A00446572656358
:10020C0068610A004162616A6F0A00417272696238
:0A021C00610A00580A00590A0000A8
:00000001FF
